:100000000C9444000C9461000C9461000C94610009
:100010000C9461000C9461000C9461000C946100DC
:100020000C9468010C9461000C9461000C946100C4
:100030000C9461000C9461000C9454010C945E01CA
:100040000C9461000C9461000C9461000C946100AC
:100050000C9461000C9461000C9461000C9461009C
:100060000C9461000C946100AB03BD03CF03E1036A
:10007000F3030504170429043B044D045F047104D1
:1000800083049504A704B90411241FBECFEFD8E060
:10009000DEBFCDBF12E0A0E0B1E0E6EEF5E102C0C8
:1000A00005900D92A43CB107D9F723E0A4ECB2E08F
:1000B00001C01D92A932B207E1F70E9445060C94D7
:1000C000F10A0C940000E0ECF0E0908195FFFDCF88
:1000D0008093C60080E090E00895E0ECF0E080813D
:1000E0008823ECF78091C60090E008959B01AC0155
:1000F000E0ECF0E08081837E8083ECEFF2E08081B1
:10010000877E8F7D8083837090E08230910509F433
:100110004CC08330910509F465C0019719F1E0ECFA
:10012000F0E080818D7F8083E2ECF0E080818E7F43
:10013000808380818F77808380818F7B808360E460
:1001400072E48FE090E00E944D0721503109209326
:10015000FE02EFEFF2E0932F9F708081807F892B6A
:1001600080836EC0E0ECF0E0808182608083E2EC0E
:10017000F0E080818E7F808380818F778083808193
:100180008F7B808360E874E88EE190E00E944D07E9
:10019000215031092093FE02EFEFF2E0932F9F7080
:1001A0008081807F892B80834BC0E0ECF0E08081F0
:1001B0008D7F80838091FC0282FF06C0E2ECF0E03C
:1001C00080818160808305C0E2ECF0E080818E7FD9
:1001D0008083E2ECF0E080818F778083808180648F
:1001E00080832EC0E0ECF0E080818D7F8083809161
:1001F000FC0282FF06C0E2ECF0E080818160808337
:1002000005C0E2ECF0E080818E7F8083E2ECF0E0DC
:1002100080818068808380818064808360E072E177
:100220008AE790E00E944D07215031092093FE0299
:10023000EFEFF2E0932F9F708081807F892B808386
:100240008091FF02982F9F709093C5009091FE02BD
:100250009093C40085FF0AC0E1ECF0E080818068E3
:100260008083EDEFF2E08081826080830895E0EC8E
:10027000F0E080818823ECF79091C000292F22952F
:100280002F70ECEFF2E0808120FB83F9292F269577
:100290002695269520FB84F99695969590FB85F9F1
:1002A00080838091C60008951F920F920FB60F921F
:1002B00011240F900FBE0F901F9018951F920F9250
:1002C0000FB60F9211240F900FBE0F901F9018952C
:1002D0001F920F920FB60F9211240F900FBE0F9026
:1002E0001F9018958FEF87BD88BD8093B400089547
:1002F00017BC18BC8FEF8093B40008958FEF87BDB3
:1003000018BC1092B400089517BC82E388BD8FEF2B
:100310008093B400089517BC8FEF88BD1092B4008D
:1003200008958FE787BD18BC8FEF8093B4000895C0
:1003300010920E0310920D0380910D0390910E0305
:100340000497CCF5109207031092060380910603E0
:1003500090910703049704F5E0910D03F0910E03CB
:100360008091060390910703EE0FFF1FEE0FFF1F12
:10037000E80FF91FED5EFC4F10828091060390910B
:100380000703019690930703809306038091060369
:1003900090910703049704F380910D0390910E034D
:1003A000019690930E0380930D0380910D0390911D
:1003B0000E0304973CF208950E949801E9E0F3E0EF
:1003C00082819381019793838283828193810196B5
:1003D00099F483E090E093838283808191810197F7
:1003E0009183808380819181019631F483E090E054
:1003F00090930A0380930903A9E0B3E0ED91FC9187
:10040000119712968D919C911397EE0FFF1FEE0F8F
:10041000FF1FE80FF91FED5EFC4F81E080838FE93D
:100420009FE00197F1F700C0000008950E94980135
:10043000E9E0F3E082819381019693838283828154
:100440009381049779F413821282808191810196BD
:100450009183808380819181049721F410920A0313
:1004600010920903A9E0B3E0ED91FC911197129667
:100470008D919C911397EE0FFF1FEE0FFF1FE80F5A
:10048000F91FED5EFC4F81E080838FE99FE00197CB
:10049000F1F700C0000008950E949801E9E0F3E040
:1004A00080819181019691838083808191810497DD
:1004B00021F410920A0310920903A9E0B3E0ED9130
:1004C000FC91119712968D919C911397EE0FFF1F3F
:1004D000EE0FFF1FE80FF91FED5EFC4F81E08083F8
:1004E0008FE99FE00197F1F700C0000008950E9496
:1004F0009801E9E0F3E08081918101979183808305
:1005000080819181019631F483E090E090930A0319
:1005100080930903A9E0B3E0ED91FC911197129645
:100520008D919C911397EE0FFF1FEE0FFF1FE80FA9
:10053000F91FED5EFC4F81E080838FE99FE001971A
:10054000F1F700C0000008955A985C985F982898C9
:1005500029982A982B982C9808953199EEC08FE904
:100560009FE00197F1F700C00000319BE6C02091A9
:100570000F03309110038091090390910A0328170B
:10058000390721F58091110390911203892BF1F025
:1005900080910B0390910C03892BC1F083E191E0D2
:1005A0009F938F930E94E50781E090E09093C502AE
:1005B0008093C4020E94780189E291E09F938F9317
:1005C0000E94E5070F900F900F900F908091C4024A
:1005D0009091C502019709F4B0C020910F033091AA
:1005E00010038091090390910A032817390759F4E1
:1005F000209111033091120380910B0390910C0311
:1006000028173907B1F4209111033091120380911A
:100610000B0390910C032817390771F420910F03F5
:10062000309110038091090390910A03281739072C
:1006300019F00E948B0164C02091110330911203C4
:1006400080910B0390910C032817390761F02091DA
:1006500011033091120380910B0390910C030196CA
:100660002817390719F40E9491014AC020910F03FD
:10067000309110038091090390910A0328173907DC
:1006800061F020910F033091100380910903909144
:100690000A0301962817390719F40E94840130C013
:1006A000209111033091120380910B0390910C0360
:1006B0002817390719F52091110330911203809101
:1006C0000B0390910C03019628173907B9F4209178
:1006D0000F03309110038091090390910A032817AA
:1006E000390761F420910F033091100380910903C1
:1006F00090910A0301962817390711F00E947E0194
:100700008091C6029091C70201969093C702809390
:10071000C6022091C6023091C70285E090E0821B9C
:10072000930B9F938F9382E491E09F938F930E940A
:10073000E5070F900F900F900F900895E091080338
:100740008E2F90E08031910508F023C1FC01EC5C14
:10075000FF4F0C946F070E94A40280911303813015
:1007600041F45A9A299A8FE99FE00197F1F700C066
:10077000000081E08093080308950E94A402809104
:100780001403813041F45C9A299A8FE99FE0019724
:10079000F1F700C0000082E08093080308950E94F2
:1007A000A40280911503813041F45F9A299A8FE960
:1007B0009FE00197F1F700C0000083E080930803F9
:1007C00008950E94A40280911603813041F4289A72
:1007D000299A8FE99FE00197F1F700C0000084E0BB
:1007E0008093080308950E94A4028091170381302A
:1007F00041F45A9A2A9A8FE99FE00197F1F700C0D5
:10080000000085E08093080308950E94A40280916F
:100810001803813041F45C9A2A9A8FE99FE001978E
:10082000F1F700C0000086E08093080308950E945D
:10083000A40280911903813041F45F9A2A9A8FE9CA
:100840009FE00197F1F700C0000087E08093080364
:1008500008950E94A40280911A03813041F4289ADD
:100860002A9A8FE99FE00197F1F700C0000088E025
:100870008093080308950E94A40280911B03813095
:1008800041F45A9A2B9A8FE99FE00197F1F700C043
:10089000000089E08093080308950E94A4028091DB
:1008A0001C03813041F45C9A2B9A8FE99FE00197F9
:1008B000F1F700C000008AE08093080308950E94C9
:1008C000A40280911D03813041F45F9A2B9A8FE935
:1008D0009FE00197F1F700C000008BE080930803D0
:1008E00008950E94A40280911E03813041F4289A49
:1008F0002B9A8FE99FE00197F1F700C000008CE090
:100900008093080308950E94A40280911F03813000
:1009100041F45A9A2C9A8FE99FE00197F1F700C0B1
:1009200000008DE08093080308950E94A402809146
:100930002003813041F45C9A2C9A8FE99FE0019763
:10094000F1F700C000008EE08093080308950E9434
:10095000A40280912103813041F45F9A2C9A8FE99F
:100960009FE00197F1F700C000008FE0809308033B
:1009700008950E94A40280912203813041F4289AB4
:100980002C9A8FE99FE00197F1F700C000001092C8
:10099000080308958091C000882394F40E943701D1
:1009A00080931201809112011F928F938BE591E049
:1009B0009F938F930E94E5070F900F900F900F90D9
:1009C0008091C4029091C502019711F580911201A6
:1009D0008337F1F40E9498010E94A40281E0809381
:1009E00013030E949E031092C5021092C40210923B
:1009F000C7021092C60281E090E0909307038093B3
:100A0000060310920E0310920D0388E780931201E3
:100A100080911201843659F48FE99FE00197F1F734
:100A200000C000000E94160288E7809312018091A6
:100A30001201813659F48FE99FE00197F1F700C068
:100A400000000E94DC0188E780931201809112016E
:100A5000833759F48FE99FE00197F1F700C0000058
:100A60000E944C0288E7809312018091120187371F
:100A700059F48FE99FE00197F1F700C000000E9450
:100A8000770288E78093120108958091C4029091C3
:100A9000C5020197F1F40E9478012FEF83EC99E0F1
:100AA000215080409040E1F700C000000E94720198
:100AB0002FEF83EC99E0215080409040E1F700C097
:100AC00000000E94CA048091C4029091C50201975F
:100AD00011F30895809106039091070381309105E9
:100AE00019F0029719F142C0E3E1F3E081E080835D
:100AF00081838283838384838583868387838087BE
:100B0000818782878387848785878687878782E036
:100B100090E090930703809306038FE19EE4019792
:100B2000F1F700C000000E949E0320C0E3E1F3E063
:100B30001082118212821382148215821682178209
:100B400010861186128613861486158616861786D9
:100B500081E090E090930703809306038FE19EE489
:100B60000197F1F700C000000E949E0380910D03E1
:100B700090910E038230910531F12CF4009749F0E9
:100B80000197A1F008958330910551F10497A9F1DF
:100B900008950E948B0181E090E090930E03809372
:100BA0000D0395E39A95F1F7000008950E949101D5
:100BB00082E090E090930E0380930D0385E38A9585
:100BC000F1F7000008950E94780183E090E090938F
:100BD0000E0380930D0395E39A95F1F700000895B5
:100BE0000E94840184E090E090930E0380930D03B3
:100BF00085E38A95F1F7000008950E947E01109226
:100C00000E0310920D0395E39A95F1F700000895F5
:100C10000F931F93CF93DF93309922C00AE010E027
:100C2000CFE0D3E00E946A050E94D507B8010E9478
:100C3000390799838883888199810497ACF70E944A
:100C4000D507B8010E9439079B838A838A819B81DB
:100C50000497ACF785E38A95F1F70000309BE2CF6B
:100C60000E94980181E090E09093C7028093C602B1
:100C700088E691E09F938F930E94E5070F900F9075
:100C8000DF91CF911F910F910895EFE0F3E085E0A0
:100C900090E0918380839383828318B88CE387B933
:100CA00015B88FEF84B91BB88EE78AB9A1ECB0E014
:100CB0008C9188608C93ECEFF2E08081806480837B
:100CC0008C9180618C93808180688083E3E2F3E083
:100CD00084E091E0958384839383828391838083EE
:100CE00060E875E280E090E00E94760085B584605F
:100CF00085BD85B58D7F85BD85B5816085BD85B593
:100D0000877F85BD84B5826084BD84B5816084BDE4
:100D100084B5806884BD84B58F7B84BD84B58062D2
:100D200084BD84B58F7E84BD88EC87BD84E188BD99
:100D3000E1EBF0E080818460808380818260808349
:100D40008081816080838081877F8083E0EBF0E019
:100D500080818260808380818160808380818062E5
:100D6000808380818F7E80838AE08093B400789432
:100D700010920E0310920D0381E090E09093070310
:100D8000809306030F2EF6E9CF2EF2E0DF2EF02D32
:100D90000F2EFFE0EF2EF3E0FF2EF02D0CEA12E015
:100DA000C7EBD2E0AA24A394B12C8091C602909103
:100DB000C702892B11F40E9408068091C602909107
:100DC000C702181619068CF70E949E03309909C0B5
:100DD0008FE99FE00197F1F700C0000030990E9471
:100DE00016020E94CA040E94AD020E94450580912D
:100DF000C6029091C7020597C1F68091C4029091F6
:100E0000C502019791F2DF92CF920E94E507F701A8
:100E10008081918101969F938F931F930F930E94DE
:100E2000E507F7018281938101969F938F93DF936A
:100E3000CF930E94E5078FEF93EDE0E38150904060
:100E4000E040E1F700C000001092C7021092C60215
:100E5000B0920703A092060310920E0310920D03A6
:100E60008DB79EB70A960FB6F8949EBF0FBE8DBF82
:100E70009CCF97FB072E16F4009407D077FD09D07E
:100E80000E94750707FC05D03EF4909581959F4F11
:100E90000895709561957F4F0895A1E21A2EAA1BBF
:100EA000BB1BFD010DC0AA1FBB1FEE1FFF1FA2171A
:100EB000B307E407F50720F0A21BB30BE40BF50B17
:100EC000661F771F881F991F1A9469F760957095A0
:100ED000809590959B01AC01BD01CF010895EE0F67
:100EE000FF1F0590F491E02D0994AA1BBB1B51E153
:100EF00007C0AA1FBB1FA617B70710F0A61BB70B8A
:100F0000881F991F5A95A9F780959095BC01CD012E
:100F100008958F929F92AF92BF92CF92DF92EF92FD
:100F2000FF92CF93DF93EC01688179818A819B8165
:100F3000611571058105910521F464E279ED8BE578
:100F400097E02DE133EF41E050E00E94790A49013A
:100F50005A019B01AC01A7EAB1E40E94980A6B0117
:100F60007C01ACEEB4EFA50194010E94A60ADC015D
:100F7000CB018C0D9D1DAE1DBF1DB7FF03C001979A
:100F8000A109B04888839983AA83BB839F77DF91A7
:100F9000CF91FF90EF90DF90CF90BF90AF909F9058
:100FA0008F9008950E948907089580E091E00E9443
:100FB00089070895A0E0B0E08093000190930101BB
:100FC000A0930201B09303010895A0E0B0E0EBEE1E
:100FD000F7E00C94BB0AAE014B5F5F4FFA016191E1
:100FE0007191AF0180912503909126030E94FB0728
:100FF000E2E00C94D70AACE0B0E0E1E0F8E00C9459
:10100000AB0A7C016B018A01FC0117821682838185
:1010100081FFBDC1CE0101964C01F7019381F6011C
:1010200093FD859193FF81916F01882309F4ABC1F2
:10103000853239F493FD859193FF81916F0185325B
:1010400029F4B70190E00E94E309E7CF512C312C3D
:1010500020E02032A0F48B3269F030F4803259F075
:10106000833269F420612CC08D3239F0803339F439
:10107000216026C02260246023C0286021C027FD93
:1010800027C030ED380F3A3078F426FF06C0FAE07A
:101090005F9E300D1124532E13C08AE0389E300D10
:1010A0001124332E20620CC08E3221F426FD6BC138
:1010B000206406C08C3611F4206802C0883641F4E2
:1010C000F60193FD859193FF81916F018111C1CF4D
:1010D000982F9F7D9554933028F40C5F1F4FFFE3AA
:1010E000F9830DC0833631F0833771F0833509F011
:1010F0005BC022C0F801808189830E5F1F4F4424AA
:101100004394512C540115C03801F2E06F0E711C4C
:10111000F801A080B18026FF03C0652D70E002C0F9
:101120006FEF7FEFC5012C870E94D8092C01830146
:101130002C852F77222E17C03801F2E06F0E711C1C
:10114000F801A080B18026FF03C0652D70E002C0C9
:101150006FEF7FEFC5012C870E94CD092C012C85F4
:101160002068222E830123FC1BC0832D90E04816AB
:101170005906B0F4B70180E290E00E94E3093A9486
:10118000F4CFF50127FC859127FE81915F01B7011E
:1011900090E00E94E30931103A94F1E04F1A5108AF
:1011A0004114510471F7E5C0843611F0893639F5E0
:1011B000F80127FF07C060817181828193810C5FF4
:1011C0001F4F08C060817181072E000C880B990B9E
:1011D0000E5F1F4F2F76722E97FF09C09095809556
:1011E000709561957F4F8F4F9F4F2068722E2AE038
:1011F00030E0A4010E941B0AA82EA81844C085371D
:1012000029F42F7EB22E2AE030E025C0F22FF97F9C
:10121000BF2E8F36C1F018F4883579F0B4C080370E
:1012200019F0883721F0AFC02F2F2061B22EB4FE05
:101230000DC08B2D8460B82E09C024FF0AC09F2FDB
:101240009660B92E06C028E030E005C020E130E00D
:1012500002C020E132E0F801B7FE07C06081718171
:10126000828193810C5F1F4F06C06081718180E095
:1012700090E00E5F1F4FA4010E941B0AA82EA81821
:10128000FB2DFF777F2E76FE0BC0372D3E7FA514FA
:1012900050F474FE0AC072FC08C0372D3E7E05C0B3
:1012A000BA2C372D03C0BA2C01C0B52C34FF0DC0A9
:1012B000FE01EA0DF11D8081803311F4397E09C0F1
:1012C00032FF06C0B394B39404C0832F867809F02C
:1012D000B39433FD13C030FF06C05A2CB31418F476
:1012E000530C5B18B32CB31468F4B70180E290E0A0
:1012F0003C870E94E309B3943C85F5CFB31410F406
:101300003B1801C0312C34FF12C0B70180E390E0DC
:101310003C870E94E3093C8532FF17C031FD03C0C2
:1013200088E790E002C088E590E0B7010CC0832F09
:10133000867859F031FF02C08BE201C080E237FDB0
:101340008DE2B70190E00E94E309A51438F4B701DB
:1013500080E390E00E94E3095A94F7CFAA94F40145
:10136000EA0DF11D8081B70190E00E94E309A11010
:10137000F5CF332009F451CEB70180E290E00E940E
:10138000E3093A94F6CFF7018681978102C08FEF87
:101390009FEF2C96E2E10C94C70AFC010590615086
:1013A00070400110D8F7809590958E0F9F1F08957B
:1013B000FC016150704001900110D8F78095909524
:1013C0008E0F9F1F08950F931F93CF93DF93FB0101
:1013D000238121FD03C08FEF9FEF28C022FF16C09D
:1013E00046815781248135814217530744F4A081F7
:1013F000B1819D012F5F3F4F318320838C932681E4
:1014000037812F5F3F4F3783268310C0EB01092FB1
:10141000182F0084F185E02D0995892BE1F68E8146
:101420009F8101969F838E83812F902FDF91CF9193
:101430001F910F910895FA01AA27283051F1203108
:1014400081F1E8946F936E7F6E5F7F4F8F4F9F4F58
:10145000AF4FB1E03ED0B4E03CD0670F781F891F9A
:101460009A1FA11D680F791F8A1F911DA11D6A0F68
:10147000711D811D911DA11D20D009F468943F911B
:101480002AE0269F11243019305D3193DEF6CF011A
:101490000895462F4770405D4193B3E00FD0C9F7E0
:1014A000F6CF462F4F70405D4A3318F0495D31FD4D
:1014B0004052419302D0A9F7EACFB4E0A6959795A0
:1014C000879577956795BA95C9F700976105710576
:1014D00008959B01AC010A2E0694579547953795C0
:1014E0002795BA95C9F7620F731F841F951FA01D1A
:1014F0000895052E97FB1EF400940E94900A57FD54
:1015000007D00E944D0707FC03D04EF40C94900ABC
:1015100050954095309521953F4F4F4F5F4F08951F
:1015200090958095709561957F4F8F4F9F4F08954F
:101530000E94E20AA59F900DB49F900DA49F800D7C
:10154000911D11240895B7FF0C94980A0E94980ADF
:10155000821B930B08952F923F924F925F926F924E
:101560007F928F929F92AF92BF92CF92DF92EF9233
:10157000FF920F931F93CF93DF93CDB7DEB7CA1BB4
:10158000DB0B0FB6F894DEBF0FBECDBF09942A88DF
:10159000398848885F846E847D848C849B84AA8487
:1015A000B984C884DF80EE80FD800C811B81AA8114
:1015B000B981CE0FD11D0FB6F894DEBF0FBECDBFDF
:1015C000ED010895A29FB001B39FC001A39F700DCC
:1015D000811D1124911DB29F700D811D1124911D3B
:0615E0000895F894FFCF0E
:1015E60001000000000000030000000063006D0021
:1015F600000078566F63652061636572746F7520AD
:101606006120626F6D626121004D616E6465202705
:1016160073272070617261207265696E6963696102
:10162600720054656E7461746976617320726573B5
:1016360074616E7465733A20256400526563656251
:1016460069646F3A202563004D6168206F652C2020
:1016560062656D2076696E646F20616F2063616DCF
:10166600706F206D696E61646F20646F20647220F4
:1016760043696D6173732043726F6174612E20201C
:10168600205574696C697A6120772C612C732C64FF
:101696002070617261206D6F76696D656E7461721E
:1016A600206F20637572736F722C206F2073656EC6
:1016B600736F7220706172612073656C6563696F08
:1016C6006E61722E202020417A756C3D206E616F0E
:1016D6002065737461206E61206D65736D61206C89
:1016E600696E6861206F7520636F6C756E613B2053
:1016F6002020526F786F3A206573746120636F6C97
:10170600756E6120616E746572696F72206F7520E7
:1017160070726F78696D613B202020416D61726542
:101726006C6F3A2065737461206E61206C696E6817
:101736006120616E746572696F72206F75207072B8
:101746006F78696D613B20202056657264653A208A
:101756006F75206E61206D65736D61206C696E68B2
:1017660061206F75206E61206D65736D6120636FFA
:101776006C756E612E00566F6365206174696E67C5
:101786006975206F206C696D697465004C696E68B7
:10179600613A2025640D00436F6C756E613A202511
:0417A600640D0000CE
:00000001FF
